:020000040800F2
:1000000000040020450100084D0100084F010008D0
:1000100051010008530100085501000800000000CC
:100020000000000000000000000000005701000870
:1000300059010008000000005B0100085D01000894
:100040005F0100085F0100085F0100085F01000810
:100050005F0100085F0100085F0100085F01000800
:100060005F0100085F0100085F0100085F010008F0
:100070005F0100085F0100085F0100085F010008E0
:100080005F0100085F0100085F0100085F010008D0
:100090005F0100085F0100085F0100085F010008C0
:1000A0005F0100085F0100085F0100085F010008B0
:1000B0005F0100085F0100085F0100085F010008A0
:1000C0005F0100085F0100085F0100085F01000890
:1000D0005F0100085F0100085F0100085F01000880
:1000E0005F0100085F0100085F0100085F01000870
:1000F0005F0100085F0100085F0100085F01000860
:100100005F0100085F0100085F0100085F0100084F
:100110005F0100085F0100085F0100085F0100083F
:100120005F0100085F0100085F0100085F0100082F
:10013000DFF80CD000F018F800480047B9010008BB
:10014000000400200648804706480047FEE7FEE717
:10015000FEE7FEE7FEE7FEE7FEE7FEE7FEE7FEE777
:100160008D01000831010008064C074D06E0E068EB
:1001700040F0010394E8070098471034AC42F6D3EE
:10018000FFF7DAFF6803000878030008704702E011
:1001900008C8121F08C1002AFAD170477047002012
:1001A00001E001C1121F002AFBD1704700BF01000E
:1001B000A0F10100FBD170476848806940F0100051
:1001C000664988616648006820F00F00644908604D
:1001D0000846006840F0030008604FF48030086172
:1001E0000846006820F0F00008600846006840F00B
:1001F00030000860022008610846006820F4706042
:1002000008600846006840F44070086004200861F7
:100210000846006820F4704008600846006840F412
:1002200040500860082008610846006820F47020EB
:1002300008600846006840F44030086010200861FB
:100240000846006820F4700008600846006840F422
:1002500040100860202008610846006820F07060A7
:1002600008600846006840F040700860402008615F
:100270000846006820F0704008600846006840F0BA
:10028000405008608020086167E04FF480303449B6
:1002900008613448FFF78AFF01203149086131487D
:1002A000FFF784FF4FF400302D4908612D48FFF718
:1002B0007DFF02202A4908612A48FFF777FF4FF4A3
:1002C0008020274908612748FFF770FF0420244950
:1002D00008612448FFF76AFF4FF4002020490861B5
:1002E0002048FFF763FF08201D4908611D48FFF7FC
:1002F0005DFF4FF480101A4908611A48FFF756FF56
:100300001020174908611748FFF750FF4FF40010FD
:10031000134908611348FFF749FF2020104908617D
:100320001048FFF743FF4FF480000D4908610D4866
:10033000FFF73CFF40200A4908610A48FFF736FFF3
:100340004FF40000064908610648FFF72FFF8020A0
:10035000034908610348FFF729FF96E700100240B0
:1003600000100140F1FF0F0078030008000000209A
:08037000000400009E010008DA
:0400000508000131BD
:00000001FF
